:020000020000FC
:0200000021C01D
:04000C000C948600CA
:100040000C946C000FEF0DBF18E01EBF3F065B4F16
:10005000666D7D077F670CE004B903E805B90FE022
:1000600007B90FEF0AB9F0E0ECE4549110E01BB9C6
:1000700030E03093C1003BB903E000936B0001E036
:100080000093680001E000936E000E946400789481
:1000900010E030E060E070E07894F0E0ECE4E30F32
:1000A0002A9A54915BB90AEF0A950030E9F72A9829
:1000B000F0E0ECE4E70F2B9A54915BB90AEF0A9554
:1000C0000030E9F72B98E9CF05E005BD04E606BD51
:1000D00001E000936E0008950F930FB70F9304E6AD
:1000E00006BDA89A6395643669F4662733953A305D
:1000F00049F43327F0E0ECE473957C3319F4772767
:10010000F0E0ECE40F910FBF0F9118950F930FB72C
:100110000F9323B120FF03C021FF04C00AC01F3F7B
:1001200021F407C01F3F19F404C0139502C01A95AB
:0E01300000C018B9D89A0F910FBF0F91189503
:00000001FF
